:100000003BEF0DF00000000000EF00F000000000EA
:0A0010000000000000000000F3D71C
:08001C000000000000001200CA
:10002400140E0C6EBE0E0D6E0D2EFED70C2EFCD7CC
:0400340000001200B6
:080038000AAE029E000E120048
:0E004000026A016A006A086A036A000E120072
:10004E000B820BAE31EF00F00368026801680068A6
:08005E000A360232FF0E120007
:100066000B840BAE3EEF00F0010E036E026A016ACE
:0A007600006A0A360232FF0E120083
:0E0080002D0E0D6E0D2EFED70000000012009A
:08008E000B6A0B86FF0E120045
:100096000A6A0350D8A40A800750D8A40A820A50D4
:1000A600D8B4AEEF00F0030AD8B467EF00F00AB098
:1000B60062EF00F006AEACEF00F0AAEF00F002AE81
:1000C600AAEF00F0ACEF00F00250800B0A6E029E21
:1000D6000650800B069E0A18D8B478EF00F00A5036
:1000E600D8B4AAEF00F0ACEF00F00750035CD8B428
:1000F60082EF00F0D8A09EEF00F0A4EF00F00650CB
:10010600025CD8B48CEF00F0D8A09EEF00F0A4EF0C
:1001160000F00550015CD8B496EF00F0D8A09EEF31
:1001260000F0A4EF00F00450005CD8B4AEEF00F08D
:10013600D8B0A4EF00F00A52D8B4ACEF00F0AAEFA2
:1001460000F00A52D8B4AAEF00F0ACEF00F0D88065
:0E0156001200D8901200D880D8841200120037
:100164000CB0F4EF00F00CA29AEF01F00E6A000E4E
:1001740002640BEF01F0F00E0214D8A4D6EF00F0E5
:10018400023A01380F0B02260138F00B016E0038D9
:100194000F0B01260038F00B006E08380F0B0026F9
:1001A4000838F00B086E0E84D89002BEEFEF00F012
:1001B40008360036013602360E2A02BEEFEF00F092
:1001C40008360036013602360E2A02BEEFEF00F082
:1001D40008360036013602360E2A0E50036490EFBC
:1001E40001F0035E0BBC08AE95EF01F0D880800EE1
:1001F40008640030000E002201220222D8A095EFEC
:1002040001F0023201320032034A9AEF01F095EF15
:1002140001F001C002F000C001F008C000F0086A5B
:10022400000E0E86026442EF01F0F00E0214D8A410
:100234002AEF01F0023A01380F0B02260138F00BC5
:10024400016E00380F0B01260038F00B006E0E848F
:10025400D89002BEEFEF00F00036013602360E2AC7
:1002640002BEEFEF00F00036013602360E2A02BE5F
:10027400EFEF00F00036013602360E2AEFEF00F001
:1002840001C002F000C001F0006A000E0E960E8854
:1002940002646FEF01F0F00E0214D8A45AEF01F0DB
:1002A400023A01380F0B02260138F00B016E0E845E
:1002B400D89002BEEFEF00F0013602360E2A02BEDD
:1002C400EFEF00F0013602360E2A02BEEFEF00F027
:1002D400013602360E2AEFEF00F001C002F0016A87
:1002E400000E0E8602649FEF01F0F00E0214D8A4F3
:1002F4007EEF01F0023A0E84D89002BEEFEF00F0D8
:1003040002360E2A02BEEFEF00F002360E2A02BEBB
:10031400EFEF00F002360E2AEFEF00F0010E0C6E44
:10032400A0DEA2EF01F0020E0C6E84DEA2EF01F05B
:10033400040E0C6E8ADEA2EF01F0080E0C6E7EDE57
:020344001200A5
:10034600086A096A100E0C6E013408360936045024
:10035600085E0550D8A0053C095ED8B007D0045009
:1003660008260550D8B0053C0926D8900036013637
:060376000C2EEAD7120074
:10037C000101F5BF02D0819C01D0818CF5BD02D06A
:10038C00819A01D0818AF5BB02D0819801D08188F5
:10039C00F5B902D0819601D08186BAB102D08182A2
:1003AC0001D08192818434DE8194F5B702D0819C96
:1003BC0001D0818CF5B502D0819A01D0818AF5B338
:1003CC0002D0819801D08188F5B102D0819601D0FC
:1003DC008186BAB102D0818201D08192818418DEEB
:0E03EC008194BAA102D018DE01D044DE1200C6
:1003FA00ED0E0101F36F010EF46F030EF325D96EB2
:10040A00000EF421DA6EDE50F125016E000EF221A3
:10041A00026E01C0F1F102C0F2F1800E0218006E04
:10042A00800E005C02E1000E015C05E2006A016ACE
:10043A00026A036A3ED0800E006E800EF219005CDA
:10044A0002E1F151FF0825E2046A056A066A076AB1
:10045A00EDC100F0EEC101F0EFC102F0F0C103F00E
:10046A0015DE010ED8B0000E006E005209E0FF0E34
:10047A00006EFF0E016EFF0E026EFF0E036E19D0A4
:10048A00FF0E006EFF0E016E7F0E026EFF0E036EF0
:10049A0010D0030EF325E16E000EF421E26EF1C1D5
:1004AA00E6FFEDC100F0EEC101F0EFC102F0F0C1CC
:0404BA0003F0120039
:1004BE00025006180E6E086A096A0B6A035007642A
:1004CE0052EF03F006500A6E068E028E03500B6E2C
:1004DE000750036E000E0B64A2EF02F00B50075E86
:1004EE00D8B443EF03F0070E076411EF03F0075E75
:1004FE0000C008F001C000F002C001F0026A074E11
:10050E0043EF03F00764E6EF02F0075E00C008F069
:10051E0001C000F0016A074E43EF03F00764C4EF19
:10052E0002F0075E00C008F0006A074E43EF03F0CA
:10053E000764ABEF02F00AC002F005C001F004C080
:10054E0000F0086A6DEF04F0030E0764B6EF02F0D8
:10055E00075E08380F0B086E074E43EF03F0D89076
:10056E000832074E43EF03F0D8900832074E43EFA0
:10057E0003F0D890083243EF03F0030E0764D5EF73
:10058E0002F0075E08380F0B086E0038F00B0826D5
:10059E0000380F0B006E074E43EF03F0D890003279
:1005AE000832074E43EF03F0D89000320832074E60
:1005BE0043EF03F0D8900032083243EF03F0030EFE
:1005CE000764FDEF02F0075E08380F0B086E003867
:1005DE00F00B082600380F0B006E0138F00B0026CA
:1005EE0001380F0B016E074E43EF03F0D890013226
:1005FE0000320832074E43EF03F0D890013200323A
:10060E000832074E43EF03F0D89001320032083221
:10061E0043EF03F0030E07642EEF03F0075E083876
:10062E000F0B086E0038F00B082600380F0B006E0B
:10063E000138F00B002601380F0B016E0238F00B5B
:10064E00012602380F0B026E074E43EF03F0D890CF
:10065E000232013200320832074E43EF03F0D890D7
:10066E000232013200320832074E43EF03F0D890C7
:10067E000232013200320832096A000E0EAE37EF36
:10068E0004F0081E001E011E021E082A002201226E
:10069E00022237EF04F00750D8A458EF03F06DEFA5
:1006AE0004F0096A02C00AF0028E068E0750035C3F
:1006BE00076ED8B42AEF04F0070E0764F8EF03F0C4
:1006CE00075E0450096E0550046E0650056E066AEC
:1006DE00074E2AEF04F0070E0764CDEF03F0075E16
:1006EE000450096E0550046E056A074E2AEF04F099
:1006FE00070E0764ABEF03F0075E0450096E046A41
:10070E00074E2AEF04F0070E076492EF03F00AC0BB
:10071E0002F06DEF04F0030E07649DEF03F0075E29
:10072E0009380F0B096E074E2AEF04F0D8900932E4
:10073E00074E2AEF04F0D8900932074E2AEF04F044
:10074E00D89009322AEF04F0030E0764BCEF03F0D1
:10075E00075E09380F0B096E0438F00B09260438B2
:10076E000F0B046E074E2AEF04F0D89004320932B4
:10077E00074E2AEF04F0D89004320932074E2AEFC2
:10078E0004F0D890043209322AEF04F0030E076405
:10079E00E4EF03F0075E09380F0B096E0438F00B17
:1007AE00092604380F0B046E0538F00B04260538A5
:1007BE000F0B056E074E2AEF04F0D8900532043267
:1007CE000932074E2AEF04F0D8900532043209326E
:1007DE00074E2AEF04F0D8900532043209322AEF80
:1007EE0004F0030E076415EF04F0075E09380F0BD3
:1007FE00096E0438F00B092604380F0B046E053809
:10080E00F00B042605380F0B056E0638F00B052687
:10081E0006380F0B066E074E2AEF04F0D8900632FC
:10082E00053204320932074E2AEF04F0D890063210
:10083E00053204320932074E2AEF04F0D890063200
:10084E00053204320932086A000E0EAE37EF04F09C
:10085E00091E041E051E061E092A04220522062252
:10086E00095008260450002205500122065002228B
:10087E000EBE4EEF04F0D8A05DEF04F0023201324E
:10088E0000320832033E5DEF04F067EF04F0D8B09B
:10089E0062EF04F0000E081E001E011E021E082A42
:1008AE000022012202220A7E62EF04F0010E0C6E7B
:1008BE0052DC6FEF04F0020E0C6E4DDC6FEF04F0A5
:1008CE00040E0C6E27EC00F06FEF04F0000E0C6EB1
:0208DE00120006
:0E08E0000101BA91EDC1F5F149DDBA811200B6
:1008EE000C6A0E6A0250D8A490EF04F001C002F018
:1008FE0000C001F0006A0E860250D8A490EF04F0FA
:10090E0001C002F0016A0E960E880250D8B4A2EF12
:10091E0004F00E50035ED8A4D8A0A8EF04F0D8902F
:10092E0002BEAEEF04F0003601360236032E97EF0C
:10093E0004F0A8EF04F0010E0C6E20EC00F0B2EF04
:10094E0004F0020E0C6E33EC00F0B2EF04F0040E65
:08095E000C6E1CEC00F012000D
:0A096600140E0D6E0D2EFED71200C8
:10097000ED0E046E010E056E030E0424E96E000EEA
:100980000520EA6E7E0EEE5C006E016A000E015AD2
:10099000F1C1E1FFF2C1E2FF00C0E6FF01C0E6FFE6
:1009A000030E0424E16E000E0520E26E7E0EE66E5C
:1009B000EDC100F0EEC101F0EFC102F0F0C103F0B3
:0209C000120023
:1009C2000450000A12E10550000A0FE10650000A25
:1009D2000CE10750000A09E1FF0E006EFF0E016EE6
:1009E2007F0E026EFF0E036EA8D0086A096A0750D6
:1009F200D8B48CEF05F00350D8B491EF05F0025053
:100A020006180A6E028E068E0E6A02C008F001C037
:100A12000CF000C00DF004500D5E0550D8A0053C4E
:100A22000C5E0650D8A0063C085E086A0C6A0D6A85
:100A3200D8A023EF05F0D8900232013200320832FA
:100A4200010E0E6E0750035ED8A030EF05F07E0E49
:100A52000E240326D8B096EF05F036EF05F07E0E91
:100A62000E240326D8A09BEF05F0180E0B6E0D3650
:100A72000C3608360036013602360E360450005E59
:100A82000550D8A0053C015E0650D8A0063C025E87
:100A920006340E120EA051EF05F00D805CEF05F04A
:100AA200045000260550D8B0053C01260650D8B0A7
:100AB200062802260D900B2E38EF05F082EF05F086
:100AC200D8900036013602360E360450005E0550CC
:100AD200D8A0053C015E0650D8A0063C025E063452
:100AE2000E10010B0D26D8B00C2AD8B4082AD8A4AF
:100AF20082EF05F008320C320D32032AD8B496EF99
:100B020005F00AAE089E0850026E0C50016E0D50A0
:100B1200006E9EEF05F0010E47EC00F09EEF05F02F
:100B2200020E20EC00F09EEF05F0040E27EC00F020
:0C0B32009EEF05F0080E33EC00F01200FE
:100B3E000101F16B050EF15D0AE2F151EF25E16E57
:100B4E00000EF021E26E200EE66EF12BF3D7F1517E
:100B5E00EF25E16E000EF021E26EE66AF107F1512B
:100B6E00EF25F26F000EF021F36F0A0E046E000EE9
:100B7E00056EEDC100F0EEC101F0A3EC01F008C06E
:100B8E0000F009C001F0300E0026F2C1E1FFF3C102
:100B9E00E2FF00C0E6FF0A0E046E000E056EEDC108
:100BAE0000F0EEC101F0A3EC01F000C0EDF101C0C8
:100BBE00EEF1000E011802E1000E001801E102D064
:060BCE00F107CDD7120073
:100BD40003500718D8A4FEEF05F002500618D8A455
:100BE400FEEF05F001500518D8A4FEEF05F0005003
:0E0BF4000418D8B4D8841200D894120012004D
:100C02000B800BAE0DEF06F0026A0AAEFF0E026E0B
:0C0C1200016E006E0A360232FF0E120066
:100C1E00086A096A000E0762036494EF06F0025038
:100C2E0006180A6E075003267E0ED8A025EF06F092
:100C3E00035ED8B099EF06F029EF06F0035ED8A058
:100C4E009EEF06F0028E068E02C00EF001C00BF073
:100C5E0000C00DF000500402F4CF0CF0015005025C
:100C6E00F4CF00F0F3CF08F00402F3500C26F4504A
:100C7E000822000E00220D500502F3500C26F450EF
:100C8E000822000E002202500402F3500826F450EF
:100C9E00002202500502016A000E0122F3500026C6
:100CAE00F45001220D500602F3500826F450002293
:100CBE00026A000E012202220B500602F350002699
:100CCE00F4500122000E02220E500602F3500126AD
:100CDE00F450022202BE7CEF06F0083600360136D2
:100CEE0002360306D8B49EEF06F08FEF06F0D880DA
:100CFE00800E08640030000E002201220222D8A0CD
:100D0E008FEF06F0023201320032034A99EF06F0FD
:100D1E000AAE029E000EA1EF06F0010E20EC00F0CE
:100D2E00A1EF06F0020E27EC00F0A1EF06F0040E84
:060D3E0033EC00F012008E
:100D44000101E46BE56BDEC1E6F1DFC1E7F1800E82
:100D5400DF19006E800E005C02E1000EDE5D0BE226
:100D6400010EE46F000EE56FDE510008E66FDFC18F
:100D7400E7F1000EE757E6C1EDF1E7C1EEF1E0C19E
:100D8400EFF1E1C1F0F1D9DE060EE26F000EE36F80
:100D9400000E006EE351005C02E1E251000819E22A
:100DA400E251E025E16EE351E121E26E010EE25DE4
:100DB400006E000EE359016E0050E025E96E01500B
:100DC400E121EA6EEECFE6FF010EE25F000EE35B87
:100DD400DFD7E0C1E1FFE1C1E2FF200EE66EE4519E
:100DE400E5111AE0E26BE36BE251E025E96EE351B1
:100DF400E121EA6EEE50200A03E1E24BE32BF4D743
:100E0400010EE25F000EE35BE251E025E16EE35187
:0A0E1400E121E26E2D0EE66E1200E1
:0E0E1E00ACB202D00000FCD7DEC1ADFF120066
:100E2C00C26A0101641D006E0050C1160F0EC01283
:100E3C00C08EDEC100F000360090003600900050ED
:100E4C00C212C2808ADDC282C2A201D0FDD7C4CF39
:100E5C0001F0006A00C0DFF101C0E0F1C3500012E4
:100E6C00000E011200C0DFF101C0E0F1C290000ED3
:100E7C000014026E0150800B036E000E031802E189
:100E8C00000E021802E0DF6BE06BDFC100F0E0C186
:040E9C0001F012004F
:100EA000DEC104F0DFC105F0E0C106F0E1C107F0EA
:100EB000006A016A026A036A4BEC00F0000ED8B0C7
:100EC000010E006E005205E0006A016A026A036AC0
:100ED000F3D0DEC1E2F1DFC1E3F1E0C1E4F1E1C151
:100EE000E5F1000E046E000E056E000E066E7F0E1C
:100EF000076EDEC100F0DFC101F0E0C102F0E1C128
:100F000003F04BEC00F0010ED8B0000E006E005262
:100F100019E0E2C104F0E3C105F0E4C106F0E5C167
:100F200007F0000E006E000E016E000E026E7F0EC6
:100F3000036E47DD00C0E2F101C0E3F102C0E4F15D
:100F400003C0E5F1E2C1EDF1E3C1EEF1E4C1EFF17F
:100F5000E5C1F0F1EB0E0101F16F010EF26F08DD5A
:100F600000C0E2F101C0E3F102C0E4F103C0E5F129
:100F700000C0EDF101C0EEF102C0EFF103C0F0F1ED
:100F8000EBC1F1F1ECC1F2F1F233F133F29FF2BDBA
:100F9000F28FF2AF03D002E3F14BF22BFDEC01F044
:100FA00000C0E2F101C0E3F102C0E4F103C0E5F1E9
:100FB000000E046E000E056E000E066E7F0E076EAC
:100FC000DEC100F0DFC101F0E0C102F0E1C103F0D9
:100FD0004BEC00F0010ED8B0000E006E005219E08C
:100FE000E2C104F0E3C105F0E4C106F0E5C107F099
:100FF000000E006E000E016E000E026E7F0E036E7C
:10100000E0DC00C0E2F101C0E3F102C0E4F103C0A2
:10101000E5F1140E0101EA6FE2C104F0E3C105F04D
:10102000E4C106F0E5C107F0DEC100F0DFC101F068
:10103000E0C102F0E1C103F0C4DCE2C104F0E3C1AD
:1010400005F0E4C106F0E5C107F05FEC02F0000E28
:10105000046E000E056E000E066E800E076EB1DC8B
:1010600000C0E6F101C0E7F102C0E8F103C0E9F118
:10107000E2C104F0E3C105F0E4C106F0E5C107F008
:10108000A9DD010ED8A4000E006E005201E00CD0C4
:10109000E6C1E2F1E7C1E3F1E8C1E4F1E9C1E5F15C
:1010A0000101EA07EA53B8E1E2C100F0E3C101F04F
:0A10B000E4C102F0E5C103F01200F4
:1010BA000134083609360450085E0550D8A0053CAC
:1010CA00095E003601360F0E0C6E013408360936F9
:1010DA00045000A006D0085E0550D8A0053C095E61
:1010EA0005D008260550D8B0053C09260036013639
:1010FA000C2EEBD700B006D0045008260550D8B005
:08110A00053C0926000012005B
:101112000050086E0150006E016A026A036A0B6A8F
:101122000C6A960E036E0A6A00C001F008C000F055
:0A113200086A026A77EC04F012006C
:10113C000101E06BE16BDEC103F0DFC104F0DEC145
:10114C0005F0DFC106F003C0E9FF04C0EAFFEE5072
:10115C00200A04E1E051E11101E110D0010EE06F31
:10116C00000EE16F03C0E9FF04C0EAFF05C0E1FF18
:10117C0006C0E2FFEECFE6FF054A062A03C001F0E7
:10118C0004C002F0034A042A01C0E9FF02C0EAFFCE
:10119C00EE50000AD8E1DEC100F0DFC101F0120010
:1011AC0010D0800E0101DE6F1AD0C00EDE6F17D08A
:1011BC00940EDE6F14D0D40EDE6F11D0800EDE6F65
:1011CC000ED00101DE51010AECE0DE51020AEDE025
:1011DC00DE51030AEDE0DE51040AEDE0EFD7DF0546
:1011EC00006EDE51002600C0DEF100C0F5F1BEEC51
:1011FC0001F0BA91E26BE251E025E96E000EE121BB
:10120C00EA6EEE520CE0E251E025E96E000EE121AF
:10121C00EA6EEECFEDF170EC04F0E22BECD7BA8174
:02122C001200AE
:10122E00016A1E0E015C0CE27B0EE16E010EE26E97
:10123E000150E126D8B0E22A200EE66E012AF1D73F
:02124E0012008C
:101250000101D76BD4C1E9FFD5C1EAFFEECFD6F1CA
:10126000D651000A0EE0D6C1DEF1D9DD0101D72B3F
:10127000D751D425E96E000ED521EA6EEECFD6F116
:04128000EFD7120092
:10128400FF0E0101C26FFF0EC36FFF0EC46FFF0E8E
:10129400C56FC26A641D006E0050C1160F0EC012E5
:0612A400C08EC2801200A2
:1012AA000900F5CFE6FF0006FBE10106F9E11200AD
:1012BA001E0E0101BB6F0E0EBC6FDE0EBD6F010E5E
:1012CA00BE6FFF0EB66FFF0EB76F000EB86F000E3F
:1012DA00B96FFF0EAE6FFF0EAF6F000EB06F000E4C
:1012EA00B16FFF0EB26FFF0EB36F000EB46F000E38
:1012FA00B56FAC8A900EAB6E948E949C9EAA03D066
:08130A00AECF00F0FBD712008A
:101312009394939293969398939A939C81948192A7
:10132200819C819A8198819612EC00F012EC00F077
:1013320012EC00F08188818681840EEC00F08194A9
:1013420012EC00F081840EEC00F0819412EC00F0BB
:1013520081840EEC00F0819412EC00F0819681847D
:101362000EEC00F0819412EC00F081840EEC00F09F
:1013720081948198818C81840EEC00F0819412EC2E
:1013820000F0819C818681840EEC00F0819481962C
:1013920081840EEC00F0819412EC00F081840EEC5A
:1013A20000F08194818681840EEC00F0819412EC2D
:1013B20000F0819681840EEC00F08194818C818A08
:1013C2008188818681840EEC00F0819412EC00F019
:0613D2000101BA811200C6
:1013D8000450000A08E10550000A05E1FF0E006EFE
:1013E8007F0E016E57D00D6A096A086A0150001015
:1013F800D8B4000C015005180A6E0ABE0D1E0B6AFF
:1014080005AE05D0041E051E042AD8B4052A01AE6F
:1014180005D0001E011E002AD8B4012A015005106B
:101428000A6E0ABE10D045DE0BB020D00DAE000CFF
:10143800001E011E002AD8B4012A081E091E082A07
:10144800D8B4092A000C05AE0DD001BE07D0015052
:10145800096E0050086E016A006AE8D7016A006ADE
:10146800002A000C011E001E0B2ADDD7082AD8B45A
:10147800092A0450085CD8A4D9D70550095CD8A417
:10148800D5D7096A086A002AD8B4012A01AECED78E
:061498000000FF0C120031
:10149E006FC1DEF170C1DFF1C60E0101E06F010E0A
:1014AE00E16F49DC010EDE6F010EDF6F6B0EE06F38
:1014BE00010EE16F74DEC60EDE6F010EDF6F37DEDA
:1014CE0000C0E0F101C0E1F1010EDE6F040EDF6F2E
:1014DE0066DE010EDE6F070EDF6F690EE06F010E26
:1014EE00E16F5DDE900E0C6E9E0E0D6E0D2EFED714
:1014FE000C2EFCD7000071C1DEF172C1DFF1CD0EF2
:10150E00E06F010EE16F17DC010EDE6F090EDF6F6B
:10151E00650EE06F010EE16F42DECD0EDE6F010E45
:10152E00DF6F05DE00C0E0F101C0E1F1010EDE6FFC
:10153E000C0EDF6F34DE010EDE6F0E0EDF6FA20EAD
:10154E00E06F000EE16F2BDE900E0C6E9E0E0D6E98
:10155E000D2EFED70C2EFCD70000A4C0DEF1A5C0C8
:10156E00DFF1740EE06F010EE16FA2EC06F0020ED9
:10157E00DE6F010EDF6F9D0EE06F000EE16F0FDE6E
:10158E00740EDE6F010EDF6FD2DD00C0E0F101C020
:10159E00E1F1020EDE6F030EDF6F01DE020EDE6F73
:1015AE00050EDF6FA00EE06F000EE16FF8DD900EFE
:1015BE000C6E9E0E0D6E0D2EFED70C2EFCD700005F
:0215CE00120009
:1015D0000B6A0350D8B42EEF0BF002500A6E028E45
:1015E0008E0E035E03AE32EF0BF0036C080E035C4D
:1015F000D8A00DEF0BF0036E013602C001F0026AB5
:10160000080E035CD8A00DEF0BF0036E0136016AE3
:101610000350D8A4D89017EF0BF00350D8B417EFAD
:101620000BF0D89002320132032E11EF0BF00BBCFD
:1016300001A024EF0BF0D8A024EF0BF0012AD8B4BE
:10164000022A02BE41EF0BF00AAE47EF0BF0021E7A
:10165000011E012AD8B4022A47EF0BF0026A016A80
:1016600047EF0BF00B800BAE4BEF0BF0026A0AAEAC
:101670004BEF0BF0FF0E026E016E0A3602324BEF9B
:101680000BF0010E0C6E01EC06F04DEF0BF0000EAE
:101690000C6E4DEF0BF0FF0E0C6E0150006E025001
:0416A000016E1200C5
:1016A4000101D86BD96BDA6BDB6BDC6BDD6BD66B52
:1016B400D76B800ED719006E800E010A005C02E120
:1016C400F40ED65D31E2D4C1DEF116EC07F000C0B1
:1016D400D8F101C0D9F11BDD00C004F001C005F050
:1016E40002C006F003C007F0DAC100F0DBC101F06C
:1016F400DCC102F0DDC103F04BEC00F0010ED8B008
:10170400000E006E00520DE0D8C100F0D9C101F006
:10171400FEDC00C0DAF101C0DBF102C0DCF103C081
:10172400DDF1D64BD72BC5D7DAC100F0DBC101F010
:10173400DCC102F0DDC103F0000E046E000E056E84
:10174400200E066E810E076E0FEC06F0000E046E7E
:10175400000E056E000E066E890E076EE1EC04F0B5
:1017640000C0DAF101C0DBF102C0DCF103C0DDF13D
:10177400000E046E000E056E000E066E800E076EDF
:10178400E1EC04F000C0DAF101C0DBF102C0DCF1ED
:1017940003C0DDF1000E0101DE6F000EDF6F000EED
:1017A400E06F800EE16F50EC07F000C004F001C060
:1017B40005F002C006F003C007F0000E006E000E34
:1017C400016E000E026E7F0E036EE1EC04F0DAC1CE
:1017D40004F0DBC105F0DCC106F0DDC107F00FEC5D
:1017E40006F000C0DAF101C0DBF102C0DCF103C095
:1017F400DDF1000E046E000E056E7A0E066E880E84
:10180400076E0FEC06F0000E046E000E056E040E5B
:10181400066E850E076EE1EC04F000C0DAF101C03B
:10182400DBF102C0DCF103C0DDF1480E0C6ECE0E1C
:101834000D6E0D2EFED70C2EFCD700000000DAC171
:1018440000F0DBC101F0DCC102F0DDC103F01200E5
:10185400D4C104F0D5C105F004C0E9FF05C0EAFF16
:10186400EE5203E0044A052AF7D704C002F005C08B
:1018740003F0044A052AD6C100F0D7C101F00101E2
:10188400D64BD72B00C0E9FF01C0EAFF02C0E1FF3D
:1018940003C0E2FFEECFE6FF02C0E9FF03C0EAFFA8
:1018A400EE5201E0E2D7D4C100F0D5C101F012003C
:1018B4000101D86BD96BDA6BDB6BDC6BDD6BD66B40
:1018C400D76B800ED719006E800E010A005C02E10E
:1018D400F40ED65D32E2D4C1DEF116EC07F000C09E
:1018E400D8F101C0D9F113DC00C004F001C005F047
:1018F40002C006F003C007F0DAC100F0DBC101F05A
:10190400DCC102F0DDC103F04BEC00F0010ED8B0F5
:10191400000E006E00520EE0D8C100F0D9C101F0F3
:1019240089EC08F000C0DAF101C0DBF102C0DCF19F
:1019340003C0DDF1D64BD72BC4D7DAC100F0DBC12D
:1019440001F0DCC102F0DDC103F0000E046E000EF4
:10195400056E200E066E810E076E0FEC06F0000E6B
:10196400046EC00E056E7F0E066E880E076EE1ECE7
:1019740004F000C0DAF101C0DBF102C0DCF103C005
:10198400DDF1000E046E000E056E000E066E810E73
:10199400076E0FEC06F000C0DAF101C0DBF102C003
:1019A400DCF103C0DDF1330E046E330E056E330E2D
:1019B400066E7F0E076E5FEC02F000C0DAF101C024
:1019C400DBF102C0DCF103C0DDF1000E046E000E99
:1019D400056E100E066E830E076E0FEC06F000C047
:1019E400DAF101C0DBF102C0DCF103C0DDF1000E6D
:1019F4000101DE6F000EDF6F000EE06F800EE16FFD
:101A040050EC07F000C004F001C005F002C006F07D
:101A140003C007F0000E006E000E016E000E026E91
:101A24007F0E036EE1EC04F0DAC104F0DBC105F0D3
:101A3400DCC106F0DDC107F00FEC06F000C0DAF1FE
:101A440001C0DBF102C0DCF103C0DDF1480E0C6E15
:101A5400CE0E0D6E0D2EFED70C2EFCD7000000000E
:101A6400DAC100F0DBC101F0DCC102F0DDC103F03A
:021A740012005E
:101A76006CEC11F0FF0E0F01386F396B3A6B936AFD
:101A860042EC09F043DC010EF56FBEEC01F00C0EE2
:101A9600F56FBEEC01F00F01396B3A6B936A0F0ECE
:101AA6000B6E070E0C6E890E0D6E0D2EFED70C2ECC
:101AB600FCD70B2EFAD700000000D398D38AD38C1C
:101AC600F28EF28AF28CB886010EB06E1F0EAF6EE1
:101AD600AC845DEC09F042EC09F018DC030EDE6F15
:101AE600030EDF6FB30EE06F000EE16FD6EC08F069
:101AF6000F0E0B6E070E0C6E890E0D6E0D2EFED799
:101B06000C2EFCD70B2EFAD70000000017EC09F0BC
:101B1600030E0101DE6F020EDF6FB00EE06F000EE6
:101B2600E16FD6EC08F0A60ED46F000ED56F28EC48
:101B360009F00F0E0B6E070E0C6E890E0D6E0D2E34
:101B4600FED70C2EFCD70B2EFAD7000000000F0E86
:101B56000B6E070E0C6E890E0D6E0D2EFED70C2E1B
:101B6600FCD70B2EFAD70000000017EC09F0010E87
:101B76000101F56FBEEC01F0030EDE6F010EDF6FA3
:101B8600AB0EE06F000EE16FD6EC08F0960ED46F48
:101B9600000ED56F28EC09F0010EF56FBEEC01F0D2
:101BA6000F0E0B6E070E0C6E890E0D6E0D2EFED7E8
:101BB6000C2EFCD70B2EFAD700000000010EF56F95
:101BC600BEEC01F017EC09F0030E0101DE6F010E09
:101BD600DF6F350EE06F000EE16FD6EC08F0410EB8
:101BE600D46F000ED56F28EC09F00F0E0B6E070EA2
:101BF6000C6E890E0D6E0D2EFED70C2EFCD70B2EFD
:101C0600FAD700000000010EF56FBEEC01F0030EDE
:101C1600DE6F010EDF6F2C0EE06F000EE16FD6EC6B
:101C260008F0150ED46F000ED56F28EC09F00F0ED4
:101C36000B6E070E0C6E890E0D6E0D2EFED70C2E3A
:101C4600FCD70B2EFAD700000000010EF56FBEEC94
:101C560001F017EC09F0030E0101DE6F010EDF6FD4
:101C6600200EE06F000EE16FD6EC08F07A0ED46F0E
:101C7600000ED56F28EC09F00F0E0B6E070E0C6EDA
:101C8600890E0D6E0D2EFED70C2EFCD70B2EFAD715
:101C9600000000000F0E0B6E070E0C6E890E0D6E07
:101CA6000D2EFED70C2EFCD70B2EFAD70000000007
:101CB600010EF56FBEEC01F017EC09F0030E010101
:101CC600DE6F010EDF6F880EE06F000EE16FD6EC5F
:101CD60008F07B6B7B0ED46F010ED56F5C0ED66F52
:101CE600000ED76FB4DD7B0ED46F010ED56F28ECD6
:101CF60009F00D0EDE6F0FEC07F00A0E0101DE6F24
:101D06000FEC07F00F0E0B6E070E0C6E890E0D6EA4
:101D16000D2EFED70C2EFCD70B2EFAD70000000096
:101D26000F0E0B6E070E0C6E890E0D6E0D2EFED766
:101D36000C2EFCD70B2EFAD7000000000101736BA6
:101D4600D46BD56BB4DD41DC00C06FF101C070F11E
:101D5600010E0101D46F000ED56FA1DC36DC00C088
:101D660071F101C072F1020E0101DE6F16EC07F08F
:101D760089EC08F0230E046EDB0E056E790E066EF6
:101D86007D0E076E0FEC06F020DC00C0A4F001C04B
:101D9600A5F04FEC0AF0900E0C6E9E0E0D6E0D2EF9
:101DA600FED70C2EFCD700001D0E0B6E0E0E0C6E11
:101DB600150E0D6E0D2EFED70C2EFCD70B2EFAD758
:101DC60000000000030EDE6F010EDF6F4F0EE06FA6
:101DD600000EE16FD6EC08F017EC09F001017B6B01
:101DE6007B0ED46F010ED56FBE0ED66F000ED76F69
:101DF6002EDD7B0ED46F010ED56F28EC09F00D0E8B
:101E0600DE6F0FEC07F00A0E0101DE6F0FEC07F034
:101E16000101736B1D0E0B6E0E0E0C6E150E0D6E04
:101E26000D2EFED70C2EFCD70B2EFAD70000000085
:101E360017EC09F001017B6B7B0ED46F010ED56F99
:101E4600420ED66F010ED76F02DD7B0ED46F010EE8
:101E5600D56F28EC09F00D0EDE6F0FEC07F00A0EB9
:101E66000101DE6F0FEC07F01D0E0B6E0E0E0C6EF1
:101E7600150E0D6E0D2EFED70C2EFCD70B2EFAD797
:101E86000000000017EC09F001017B6B030EDE6F0A
:101E9600010EDF6F520EE06F010EE16FD6EC08F017
:101EA6007B0ED46F010ED56F190ED66F010ED76F4C
:101EB600CEDC7B0ED46F010ED56F28EC09F0E80E50
:101EC600046E030E056E6FC100F070C101F0ECECFC
:101ED60009F0300E00240101DE6F0FEC07F0E80E6A
:101EE600046E030E056E6FC100F070C101F0ECECDC
:101EF60009F008C000F009C001F0640E046E000E7F
:101F0600056EECEC09F0300E00240101DE6F0FECDB
:101F160007F0640E046E000E056E6FC100F070C10E
:101F260001F0ECEC09F008C000F009C001F00A0E5F
:101F3600046E000E056EECEC09F0300E0024010173
:101F4600DE6F0FEC07F00A0E046E000E056E6FC111
:101F560000F070C101F0ECEC09F008C000F009C017
:101F660001F0300E00240101DE6F0FEC07F0070EC2
:101F76000101D46F010ED56F28EC09F0E80E046E4E
:101F8600030E056E71C100F072C101F0ECEC09F0B0
:101F9600300E00240101DE6F0FEC07F0E80E046E30
:101FA600030E056E71C100F072C101F0ECEC09F090
:101FB60008C000F009C001F0640E046E000E056E44
:101FC600ECEC09F0300E00240101DE6F0FEC07F097
:101FD600640E046E000E056E71C100F072C101F050
:101FE600ECEC09F008C000F009C001F00A0E046E1E
:101FF600000E056EECEC09F0300E00240101DE6FD8
:102006000FEC07F00A0E046E000E056E71C100F0AB
:1020160072C101F0ECEC09F008C000F009C001F053
:10202600300E00240101DE6F0FEC07F0100E0101E7
:10203600D46F010ED56F28EC09F0E80E046E030E7E
:10204600056EA4C000F0A5C001F0ECEC09F0300E5E
:1020560000240101DE6F0FEC07F0E80E046E030E9C
:10206600056EA4C000F0A5C001F0ECEC09F008C0B4
:1020760000F009C001F0640E046E000E056EECEC73
:1020860009F0300E00240101DE6F0FEC07F0640E3C
:10209600046E000E056EA4C000F0A5C001F0ECECC5
:1020A60009F008C000F009C001F00A0E046E000E27
:1020B600056EECEC09F0300E00240101DE6F0FEC2A
:1020C60007F00A0E046E000E056EA4C000F0A5C04F
:1020D60001F0ECEC09F008C000F009C001F0300E88
:1020E60000240101DE6F0FEC07F00D0E0101DE6F1B
:1020F6000FEC07F00A0E0101DE6F0FEC07F01D0E64
:102106000B6E0E0E0C6E150E0D6E0D2EFED70C2ED2
:10211600FCD70B2EFAD7000000000F0E0B6E070E31
:102126000C6E890E0D6E0D2EFED70C2EFCD70B2EC7
:10213600FAD700000000030E0101DE6F010EDF6F0B
:102146005B0EE06F010EE16FD6EC08F017EC09F0BC
:1021560001017B6B8D0E0B6E420E0C6E770E0D6EB3
:102166000D2EFED70C2EFCD70B2EFAD70000000042
:04217600E7D5FFD7D3
:1022D80010EE15F05E0E006E020E016E7A0EF66EAE
:0E22E800210EF76E000EF86E55EC09F0120094
:0B217A0041542B43575141500D0A0007
:0C21850041542B4349504D55583D31004A
:0921910041542B43575141500009
:0C219A0041542B43574D4F44453D31004C
:0E21A60041542B43574D4F44453D330D0A0025
:0D21B40055706C6F6164696E672E2E2E00F1
:1021C10041542B43574A41503D225054434C2D42D8
:0E21D10042222C224634433041394142220042
:0E21DF0041542B4349504D55583D310D0A00D7
:0E21ED00636F6E6E656374696E672E2E2E0032
:0721FB00415445300D0A00BC
:03220200543A004B
:02220500430094
:02220700410094
:022209000000D3
:05220B0041540D0A0022
:052210004154453000BF
:0322150041540031
:0B221800542F46206865616C7468005C
:1022230041542B43495053544152543D342C22546E
:102233004350222C223138342E3130362E3135336F
:092243002E313439222C38300010
:08224C00BF01AD01C001C10199
:08225400C101BF01AD01C00191
:08225C00AD01C001C101BF0189
:08226400C001C101BF01AD0181
:09226C00266669656C64323D00D0
:09227500266669656C64333D00C6
:10227E00474554202F7570646174653F6B65793DD9
:10228E00325533364D4C3843484A523233494F5704
:09229E00266669656C64313D009F
:1022A70041542B43495053454E443D342C3730005D
:0922B70047455420444154410004
:0922C0004349504C434F534500C3
:0122C9000F05
:0422CA0049313A005C
:0222CE005600B8
:0422D00056313A0049
:0222D400000008
:0222D600000006
:020000040030CA
:0D000100231F3CFFBF81FF03C003E003404D
:00000001FF
